:020000040800F2
:10000000680900203D6A0008C9680008CB6800083C
:10001000CD680008CF680008D16800080000000023
:10002000000000000000000000000000D36800088D
:10003000D568000800000000D7680008D9680008EB
:10004000596A00085D6A0008616A0008656A00086C
:10005000696A00086D6A0008716A0008756A00081C
:10006000796A00087D6A0008816A0008DD68000876
:10007000856A0008896A00088D6A0008916A00088C
:10008000956A0008996A0008E36800089D6A0008FC
:10009000A16A0008A56A0008A96A0008AD6A0008FC
:1000A000B16A0008B56A0008B96A0008BD6A0008AC
:1000B000C16A0008C56A0008C96A0008CD6A00085C
:1000C000D16A0008D56A0008D96A0008DD6A00080C
:1000D000E16A0008E56A0008E96A0008E9680008C2
:1000E000ED6A0008F16A000800000000F56A0008E7
:1000F000F96A0008FD6A0008016B0008056B00083A
:10010000096B00080D6B0008116B0008156B0008E7
:10011000196B00081D6B0008EF680008216B0008D0
:10012000256B0008296B00082D6B0008316B000857
:10013000356B0008396B00083D6B0008416B000807
:1001400000000000000000000000000000000000AF
:10015000456B0008496B00084D6B0008516B0008A7
:10016000556B0008596B00085D6B0008616B000857
:10017000656B0008696B00086D6B000800000000EB
:10018000716B0008756B0008796B00087D6B0008C7
:10019000816B0008856B0008896B00088D6B000877
:1001A000916B0008956B0008996B00089D6B000827
:1001B000A16B0008A56B0008A96B0008AD6B0008D7
:1001C000B16B0008B56B0008B96B0008BD6B000887
:1001D000C16B0008C56B0008C96B0008CD6B000837
:1001E000D16B0008D56B0008D96B0008DD6B0008E7
:1001F000E16B0008E56B0008E96B0008ED6B000897
:10020000F16B0008F56B0008F96B0008FD6B000846
:10021000016C0008056C0008096C00080D6C0008F2
:10022000116C0008156C0008196C00080000000033
:100230001D6C0008216C000800000000256C0008FF
:10024000296C00082D6C0008316C0008356C000822
:10025000396C00083D6C0008416C0008456C0008D2
:10026000496C00084D6C0008516C0008556C000882
:10027000596C00085D6C0008616C0008000000000B
:10028000656C0008696C00086D6C000800000000D7
:1002900000000000716C000838B5040009D004F1BA
:1002A0007C05696809B900F01FF800F022F8012800
:1002B00001D1012032BDA06A08B100F02AF800F097
:1002C0000BF822F02A02826000F01DF8FFE72046BA
:1002D000BDE8324001F0C3BA2068416821F4904182
:1002E000416020688268704700202870204601F035
:1002F000F6BC24216960206802685208520002603E
:10030000204600F0C5B92068016841F00101016094
:100310007047204601F03FBA2DE9FC47054605F13C
:100320007C046068884617469946202844D1B8F175
:10033000000F14BF002F01203FD0207801283BD0B0
:1003400005F15406012121700022E2602120606045
:1003500001F014FD378082467780A968B1F5805F8F
:1003600004BF286900281ABF404600274746804638
:100370000DE0B8F1000F286812BF18F8011B37F81C
:10038000021BC1F3080181627288511E718070885E
:10039000CDF800905346002811D000228021284635
:1003A00001F08BFA0028E4D0032006E02020002191
:1003B00060600020217000E00220BDE8F687002286
:1003C0004021284601F079FA0028EFD0ECE770B51B
:1003D00000F17C039C68202C6AD109B1140001D182
:1003E000012070BD1C78012C62D0012500F15C0455
:1003F0001D70FF2581650021228062802161816856
:10040000B1F5805F04D1016989B940F2FF150EE0B2
:1004100011B9016959B104E0B1F1805F06D10169F8
:1004200009B97F2503E03F21A18001E00025A580D7
:1004300000212226D9609E6001688D6845F0010583
:100440008D60A168B1F1005F1CD1A589AA4219D3C2
:100450008268B2F5805F04BF0169002907BFDFF839
:1004600014222261DFF81012216100221A70016843
:100470000B6843F480730B600068816841F0805121
:10048000816013E08268B2F5805F04BF01690029D2
:1004900007BFDFF8E8212261DFF8E41121610022C3
:1004A0001A700068036843F490730360002070BD05
:1004B000022070BD206881684A067047836823F077
:1004C000400383607047F8B5044640F60F00256886
:1004D000E9692A68AB6808400DD1880602D59606FE
:1004E00002D4D80040F18980E16E00294FD0204627
:1004F000BDE8F44008476348034204BF624E3242FD
:100500007BD0CF0709D5D60507D501262E62D4F8B2
:10051000885045F00105C4F888508E070AD5DD07DC
:1005200008D5266802273762D4F8885045F00405BC
:10053000C4F888504E070AD5DD0708D52668042779
:100540003762D4F8885045F00205C4F888500E0789
:100550000CD5950601D4034208D0266808203062E5
:10056000D4F8885045F00805C4F8885008050BD524
:10057000550109D520684FF400660662D4F888500A
:1005800045F02005C4F88850D4F88800002870D0C1
:10059000890607D5900601D4D90003D5E16E09B1CB
:1005A00020468847D4F8880021688A68530602D418
:1005B00010F0280F1AD0204601F0CBF9FFF77AFF90
:1005C0000FD5FFF77BFFA06F58B130490165A06FD1
:1005D00001F076FE00284CD0A06F016DBDE8F4401C
:1005E00008472046BDE8F24002F098BC204602F0E1
:1005F00095FC0020C4F88800F1BDCE0209D5580250
:1006000007D54FF4801120462962BDE8F24002F080
:100610002BBD080609D5160601D4180205D5216F91
:1006200039B32046BDE8F440084748060FD55306C5
:100630000DD529682020002221F040012960C4F84E
:10064000800020462267BDE8F24002F00EBD08029D
:1006500006D5530004D52046BDE8F24002F006BDA1
:10066000C80148BF002A04D52046BDE8F24002F088
:10067000FEBCF1BD7D1A0008351A0008CB19000830
:10068000A1190008010000102001000491190008C0
:100690002DE9F04F87B004462768DFF8A828002628
:1006A000B046DFF8A4A84FF480753B68A0682169C4
:1006B000134062690343E0690B43616E13430343D4
:1006C0000B433B607A68E068DFF8803822F44052E0
:1006D00002439F427A60A269DFF874081CBF216A56
:1006E0000A43BB6803401A43BA60F96A606A0909A1
:1006F00040EA0111F962DFF85C188F4246D1DFF859
:100700005808426D12F0380200F09F80082A4ED03F
:10071000102A5FD0182A00F06F80202A00F07F8016
:10072000282A00F0A6804FF08009DFF820B8DFF813
:100730002C085F45DFF82818DFF82828DFF828386C
:10074000DFF828C8DFF828E840F01684B9F1020F76
:1007500014D0B9F1040F00F0F880B9F1080F00F0DF
:100760002781B9F1100F00F05681B9F1200F00F088
:10077000BB81B9F1400F00F0ED81E4E003F0E5F852
:100780000146606A002840F0A280CCE0DFF8E40770
:1007900087420FD1DFF8C0174A6D02F00702052A21
:1007A000C1D8DFE802F07B0417293C66BBE74FF0B5
:1007B0000409BAE7DFF87C1ADFF89C078F420CD1F6
:1007C00000F0DAFFAFD8DFE800F0690405172A541B
:1007D000A9E7ECE74FF00809A7E7DFF85C1A8F42BA
:1007E0000DD100F0C9FF9ED8DFE800F058050406DF
:1007F000194398E7EEE7DAE74FF0100995E7DFF8DD
:100800003C1A8F420ED100F0B7FFF2D8DFE800F0BB
:1008100046060504073186E7EEE7DBE7C7E74FF05A
:10082000200982E7DFF8841A8F4211D1406D10F061
:1008300038000AD00828BAD01028CBD01828DBD02E
:100840002028ECD0282814D06DE74FF001096CE780
:10085000DFF85C1A8F420FD100F08EFFF4D8DFE88A
:1008600000F01D07060504085DE7D8E7C4E7B1E717
:100870009DE74FF0400958E7DFF8381A8F420FD153
:1008800000F07AFF04D8DFE800F009080706050445
:1008900049E7EEE7C3E7AFE79CE788E7C14644E7EF
:1008A000DFF8A8168F42F3D1806D00F0070005280D
:1008B00004D8DFE800F009080706050433E7D8E7A5
:1008C000ADE799E786E772E74FF0020956E701289E
:1008D00008BF022028D0022808BF042024D0032803
:1008E00008BF062020D0042808BF08201CD00528F7
:1008F00008BF0A2018D0062808BF0C2014D00728EB
:1009000008BF102010D0082808BF20200CD00928CC
:1009100008BF402008D00A2808BF802004D00B2838
:1009200008BF284600D00120B1FBF0F0002800F0FD
:10093000F5866168009101EB4102904203D30903FF
:10094000814280F0428100F0E7BE00F012FF606A51
:1009500058B3012808BF022028D0022808BF04206D
:1009600024D0032808BF062020D0042808BF082070
:100970001CD0052808BF0A2018D0062808BF0C2064
:1009800014D0072808BF102010D0082808BF202046
:100990000CD0092808BF402008D00A2808BF8020B2
:1009A00004D00B2808BF284600D001200599BBE7DA
:1009B00000F0DCFE606A58B3012808BF022028D08E
:1009C000022808BF042024D0032808BF062020D016
:1009D000042808BF08201CD0052808BF0A2018D00A
:1009E000062808BF0C2014D0072808BF102010D0FC
:1009F000082808BF20200CD0092808BF402008D0B4
:100A00000A2808BF802004D00B2808BF284600D041
:100A10000120029988E7676ADFF83CB5DBF800B08F
:100A20005FEA8B6B37D5DFF8300500685FB3012FC5
:100A300008BF022128D0022F08BF042124D0032F91
:100A400008BF062120D0042F08BF08211CD0052F85
:100A500008BF0A2118D0062F08BF0C2114D0072F79
:100A600008BF102110D0082F08BF20210CD0092F5B
:100A700008BF402108D00A2F08BF802104D00B2FC7
:100A800008BF294600D00121C0F3C1002AFA00F2B4
:100A9000B2FBF1F04AE72FB3012F08BFDFF81808C7
:100AA00021D0022F08BFDFF814081CD0032F08BF85
:100AB000DFF80C0817D0042F08BF704613D0052F9D
:100AC00008BFDFF800080ED0062F0CBFDFF8F807CC
:100AD000072F08D0082F0CD0092F0ED00A2F15D0C1
:100AE0000B2F21D0504624E7676A002FFBD0012F3F
:100AF00001D108461DE7022F01D1104619E7032F47
:100B000008BFDFF8C807F9D0042F01D1184610E755
:100B1000052F08BFDFF8B807F9D0062F08BFDFF8A8
:100B2000F00A02D0072F01D1604602E7082F08BF64
:100B3000DFF8E00AF9D0092F08BF4FF22440F4D0C3
:100B40000A2F08BF47F6122003D00B2F01D143F61E
:100B50000950EEE6606A002834D0012808BF4FF43F
:100B60008040F6D0022808BF4FF40050F1D003288F
:100B700008BF41F25550ECD0042808BF4FF4805014
:100B8000E7D0052808BF40F6CC40E2D0062808BFD1
:100B900040F6AA2018D0072808BF4FF4006013D0F1
:100BA000082808BF4FF480600ED0092808BF4FF412
:100BB000007009D00A2808BF284605D00B2808BFB6
:100BC000802001D04FF40040B3E600230021B9F1AA
:100BD000020FDFF8447ADFF8442ADFF8440A12D023
:100BE000B9F1040F43D0B9F1080F71D0B9F1100F6A
:100BF00000F0A880B9F1200F00F01F81B9F1400F7B
:100C000000F04F8191E102F0A0FE0146606A40B31E
:100C1000012808BF022525D0022808BF042521D0BD
:100C2000032808BF06251DD0042808BF082519D0B1
:100C3000052808BF0A2515D0062808BF0C2511D0A5
:100C4000072808BF10250DD0082808BF202509D087
:100C5000092808BF402505D00A280CBF80250B288D
:100C600000D001256268B1FBF5F6002163E000F0D9
:100C700080FD606A40B3012808BF022525D0022804
:100C800008BF042521D0032808BF06251DD004284D
:100C900008BF082519D0052808BF0A2515D0062841
:100CA00008BF0C2511D0072808BF10250DD0082833
:100CB00008BF202509D0092808BF402505D00A28EB
:100CC0000CBF80250B2800D001256268059E2FE00F
:100CD00000F04CFD606A40B3012808BF022525D012
:100CE000022808BF042521D0032808BF06251DD0EF
:100CF000042808BF082519D0052808BF0A2515D0E3
:100D0000062808BF0C2511D0072808BF10250DD0D4
:100D1000082808BF202509D0092808BF402505D08C
:100D20000A280CBF80250B2800D001256268029E8E
:100D30000021B6FBF5F6500810EB062051EB1661CA
:100D40000023EEE0666ADFF810C2DCF800E05FEA3C
:100D50008E6938D5DCF8000046B3012E08BF0225A5
:100D600025D0022E08BF042521D0032E08BF06255A
:100D70001DD0042E08BF082519D0052E08BF0A254E
:100D800015D0062E08BF0C2511D0072E08BF102540
:100D90000DD0082E08BF202509D0092E08BF4025F8
:100DA00005D00A2E0CBF80250B2E00D00125C0F3E4
:100DB000C1002AFA00F1009EB1FBF5F0010E7608A1
:100DC00016EB002037E086B3012E03D1DFF864096B
:100DD00001212DE0022E08BFDFF85C0928D0032E88
:100DE00008BFDFF8580923D0042E08BFDFF85009E8
:100DF0001ED0052E08BFDFF84C0919D0062E08BFFB
:100E0000DFF8440914D0072E0CBFDFF84009082E84
:100E10000ED0092E08BF10460AD00A2E08BF384649
:100E200006D00B2E08BF504602D0DFF8240903215C
:100E3000009E10EB5600594172E0666A76B3012EAF
:100E40006AD0022E08BF104666D0032E08BFDFF816
:100E5000040961D0042E08BF38465DD0052E08BFB6
:100E6000DFF8F40858D0062E08BFDFF8F00853D09A
:100E7000072E08BF50464FD0082E08BFDFF83804B1
:100E80004AD0092E08BFDFF8340445D00A2E08BF27
:100E9000374841D00B2E08BF30483DD0DFF8AC08B2
:100EA0003AE0606AB0B3012808BF4FF4800033D045
:100EB000022808BF4FF400102ED0032808BFDFF827
:100EC000BC0A29D0042808BF4FF4801024D005287C
:100ED00008BFDFF8AC0A1FD0062808BFDFF8A40A55
:100EE0001AD0072808BF4FF4002015D0082808BFE3
:100EF0004FF4802010D0092808BF4FF400300BD0E9
:100F00000A2808BF4FF4803006D00B2808BF4FF4E2
:100F1000004001D04FF40000009E10EB5600494104
:100F2000009A02F043FF064601E04FF00108A6F5E3
:100F30004073DFF8540A834280F0EE832068C66075
:100F4000ECE300BFF369FFCF0090D003000C005822
:100F5000FFF4FF11001001400044025800093D0059
:100F600080841E0040420F0020A1070090D00300A3
:100F700000127A0000440040D4F81CB04FF6F0771D
:100F8000BBF5004F40F0EF81B9F1000F16D0B9F179
:100F9000010F44D0B9F1040F72D0B9F1080F00F07D
:100FA000A080B9F1100F00F0D480B9F1200F00F04B
:100FB0004781B9F1400F00F08D81C6E103F002F9DD
:100FC0000146606A40B3012808BF022525D00228E7
:100FD00008BF042521D0032808BF06251DD00428FA
:100FE00008BF082519D0052808BF0A2515D00628EE
:100FF00008BF0C2511D0072808BF10250DD00828E0
:1010000008BF202509D0092808BF402505D00A2897
:101010000CBF80250B2800D00125606891E003F00B
:10102000D9F80146606A40B3012808BF022525D0DF
:10103000022808BF042521D0032808BF06251DD09B
:10104000042808BF082519D0052808BF0A2515D08F
:10105000062808BF0C2511D0072808BF10250DD081
:10106000082808BF202509D0092808BF402505D039
:101070000A280CBF80250B2800D00125606860E09D
:1010800000F077FB606A40B3012808BF022525D035
:10109000022808BF042521D0032808BF06251DD03B
:1010A000042808BF082519D0052808BF0A2515D02F
:1010B000062808BF0C2511D0072808BF10250DD021
:1010C000082808BF202509D0092808BF402505D0D9
:1010D0000A280CBF80250B2800D0012560680599DF
:1010E0002FE000F043FB606A40B3012808BF0225EF
:1010F00025D0022808BF042521D0032808BF0625D3
:101100001DD0042808BF082519D0052808BF0A25C6
:1011100015D0062808BF0C2511D0072808BF1025B8
:101120000DD0082808BF202509D0092808BF402570
:1011300005D00A280CBF80250B2800D00125606847
:101140000299B1FBF5F1420802EB4102B2FBF0F665
:10115000F9E0666ADFF834C8DCF800905FEA896B72
:1011600039D5DCF8000046B3012E08BF022525D092
:10117000022E08BF042521D0032E08BF06251DD04E
:10118000042E08BF082519D0052E08BF0A2515D042
:10119000062E08BF0C2511D0072E08BF10250DD034
:1011A000082E08BF202509D0092E08BF402505D0EC
:1011B0000A2E0CBF80250B2E00D001256168C0F3DC
:1011C000C1002AFA00F2B2FBF5F04A0802EB400235
:1011D000B2FBF1F6B7E056B3012E08BF504661D01E
:1011E000022E08BF34485DD0032E08BFDFF8D808B0
:1011F00058D0042E08BF314854D0052E08BFDFF860
:10120000CC084FD0062E08BF2D484BD0072E0CBF60
:101210007046082E46D0092E08BF084642D00A2E36
:1012200008BF10463ED00B2E08BF18463AD0DFF854
:10123000E80337E000480040004C00400050004008
:10124000666A76B3012E2DD0022E08BF084629D03B
:10125000032E08BFDFF8EC0824D0042E08BF104688
:1012600020D0052E08BFDFF8E0081BD0062E08BFEF
:10127000164817D0072E08BF184613D0082E08BFEF
:1012800060460FD0092E08BFDFF888030AD00A2E67
:1012900008BF4FF2244005D00B2E08BF47F612209E
:1012A00000D0704600F05CFA4DE000BF0014014031
:1012B00000780040007C00400048E8010024F40071
:1012C000AAC2A20000A86100556151002A2C0A00A0
:1012D000801A0600606A90B3012808BF4FF40045E9
:1012E0002FD0022808BF4FF480452AD0032808BF1A
:1012F00042F6AA2525D0042808BF4FF4005520D077
:10130000052808BF41F698151BD0062808BF41F2F2
:10131000545516D0072808BF4FF4805511D008281F
:1013200008BF4FF400650CD0092808BF4FF4806552
:1013300007D00A280CBF4FF400750B2801D04FF4DA
:10134000803500F022FAB6B201E04FF00108A6F1B4
:101350001000B84280F0E08121683740C6F34200B7
:101360000743CF60DAE1B9F1000F16D0B9F1010FF0
:1013700045D0B9F1040F74D0B9F1080F00F0A38083
:10138000B9F1100F00F0D180B9F1200F00F04A81BF
:10139000B9F1400F00F07D81B5E102F013FF014685
:1013A000606A40B3012808BF022525D0022808BF83
:1013B000042521D0032808BF06251DD0042808BF16
:1013C000082519D0052808BF0A2515D0062808BF0A
:1013D0000C2511D0072808BF10250DD0082808BFFC
:1013E000202509D0092808BF402505D00A280CBFB0
:1013F00080250B2800D0012500F0C3F9D1E002F0D0
:10140000E9FE0146606A40B3012808BF022525D0E5
:10141000022808BF042521D0032808BF06251DD0B7
:10142000042808BF082519D0052808BF0A2515D0AB
:10143000062808BF0C2511D0072808BF10250DD09D
:10144000082808BF202509D0092808BF402505D055
:101450000A280CBF80250B2800D0012500F091F947
:101460009FE000F086F9606A40B3012808BF0225BA
:1014700025D0022808BF042521D0032808BF06254F
:101480001DD0042808BF082519D0052808BF0A2543
:1014900015D0062808BF0C2511D0072808BF102535
:1014A0000DD0082808BF202509D0092808BF4025ED
:1014B00005D00A280CBF80250B2800D001250599EE
:1014C00000F05FF96DE000F051F9606A40B3012867
:1014D00008BF022525D0022808BF042521D00328F3
:1014E00008BF06251DD0042808BF082519D00528E7
:1014F00008BF0A2515D0062808BF0C2511D00728DB
:1015000008BF10250DD0082808BF202509D00928BC
:1015100008BF402505D00A280CBF80250B2800D025
:101520000125029900F02DF93BE0666ADFF85C9432
:10153000D9F800B05FEA8B6B38D5D9F8001046B304
:10154000012E08BF022525D0022E08BF042521D078
:10155000032E08BF06251DD0042E08BF082519D06C
:10156000052E08BF0A2515D0062E08BF0C2511D060
:10157000072E08BF10250DD0082E08BF202509D042
:10158000092E08BF402505D00A2E0CBF80250B2E42
:1015900000D00125C1F3C1012AFA01F26068B2FB53
:1015A000F5F101EB5001B1FBF0F6AAE06EB3012EAC
:1015B00008BFDFF8980569D0022E08BFDFF8900554
:1015C00064D0032E08BFDFF88C055FD0042E08BF5F
:1015D00070465BD0052E08BFDFF87C0556D0062E7E
:1015E0000CBFDFF87805072E50D0082E08BF08463C
:1015F0004CD0092E08BF104648D00A2E08BF184606
:1016000044D00B2E08BF604640D050463EE000BF9D
:101610001516050048E801000020A1070040420F10
:101620000080841E666A8EB3012E08BF08462DD046
:10163000022E08BF104629D0032E08BFDFF8200570
:1016400024D0042E08BF184620D0052E08BFDFF88E
:1016500014051BD0062E08BFDFF80C0516D0072E88
:1016600008BF604612D0082E08BFDFF800050DD075
:10167000092E08BF4FF2244008D00A2E08BF47F6B3
:10168000122003D00B2E08BF43F6095000F068F873
:1016900037E0606A88B3012808BF4FF480452ED038
:1016A000022808BF4FF4005529D0032808BF41F293
:1016B000555524D0042808BF4FF480551FD0052865
:1016C00008BF40F6CC451AD0062808BF40F6AA2528
:1016D00015D0072808BF4FF4006510D0082808BFB0
:1016E0004FF480650BD009280CBF4FF400750A2811
:1016F00005D00B2808BF802501D04FF4004500F02D
:1017000044F8B6B201E04FF00108A6F11000B8426B
:1017100002D22168CE6001E04FF0010804F16800B8
:10172000012100234180018043608360404607B06F
:10173000BDE8F08F000048E8000024F400AAC2A22F
:101740000000127A0000A861005561510000093DB7
:10175000000090D0002A2C0A00801A0600151605F9
:10176000616800EB5100B0FBF1F6704701A802F090
:1017700027B904A802F0F8B8406D00F0070005286A
:1017800070476068B1FBF5F17047606805EB500584
:10179000B5FBF0F6704710B590F82810CA0706D5CB
:1017A00002685368C16A23F400330B43536090F816
:1017B0002820910706D502685368016B23F4803313
:1017C0000B43536090F82820510706D502685368F0
:1017D000416B23F480230B43536090F828201107BA
:1017E00006D502685368816B23F400430B435360B2
:1017F00090F82820D10606D502689368C16B23F4BF
:1018000080530B43936090F82820910606D5026818
:101810009368016C23F400530B43936090F82820E5
:10182000510610D502685368416C23F480130B43B2
:101830005360436CB3F5801F05D15468816C24F468
:10184000C0040C43546090F82820110606D50168A6
:101850004A68C06C22F4002202434A6010BDF8B509
:10186000044604F17C0500206FF07E47E86000F03C
:1018700085FA216806460868020708D500973346AE
:1018800000224FF40011204600F017F860B92068DC
:1018900001684A070AD50097334600224FF48001B9
:1018A000204600F00AF808B10320F2BD20200022F3
:1018B0006860A86000202A70F2BD2DE9F04105465D
:1018C0000E4690461F46069C2868C1693140B142C9
:1018D0000CBF01200020404538D114F1010FF3D096
:1018E00000F04CFAC01B844200D38CB92868002356
:1018F000016821F4D07101602868202182685208B3
:101900005200826005F17C004160816003701BE041
:10191000286801684A07D7D5C3691905D4D54FF49B
:101920000062026228682022036823F4D0730360F7
:101930002868816849084900816005F17C0042609F
:101940008260C26000220270032000E00020BDE837
:10195000F08110B50168002400F005F82022C0F8DD
:101960008420C46610BD0A6822F490720A6002687E
:10197000DFF8FC1193680B40936070470055150029
:1019800000CC0C0000AA0A0000FD0F000044025821
:10199000806B002200F156010A810A8001F0BEBA74
:1019A000F8B500F028F808D100F02BF82B70836D03
:1019B0005E1C00F01AF811B92AE000F001F8F1BD40
:1019C0008A6942F008028A617047F8B500F013F89E
:1019D00008D100F016F82B80836D9E1C00F005F8EE
:1019E00011B915E0FFF7ECFFF1BD866527887D1E74
:1019F00025802188704700F16C0201689369222BD1
:101A000070474B6A00F15E046188856D0B4070473A
:101A100001680B6823F490730B60016800238C68E5
:101A2000640864008C60202191611360BDE8F2407D
:101A300002F090BE2DE9F04100F069F81AD16789F3
:101A40000AE000F057F80870B26D531C00F040F83F
:101A500008B900F066F87F1EB8B20028F1D12088DE
:101A600050B16189884207DA00F03EF8414800F041
:101A700047F801E000F032F8BDE8F0812DE9F041CF
:101A800000F045F81AD167890AE000F033F80880C1
:101A9000B26D931C00F01CF808B900F042F87F1EEC
:101AA000B8B20028F1D1208850B16189884207DAA4
:101AB00000F01AF8304800F023F801E000F00EF8CA
:101AC000BDE8F08100000000548545010050C300CE
:101AD000B3652088411E2180208870473068826964
:101AE00042F00802826170473068826822F08052BA
:101AF000826070473068406AB16D08EA0000704744
:101B000028603068016841F0200101607047064696
:101B100006F15E04B4F8028006F16C05A86922287B
:101B200070473068124B026822F48072026030689D
:101B300020228168194081600020AA612860304617
:101B400002F008BE5458140000350C000048E801AB
:101B50000024F400AAC2A20000A86100556151004F
:101B60002A2C0A00801A06001516050048E8010014
:101B7000FEFFFFEFA1190008CB19000881B07148E2
:101B8000016841F002010160006800F0020000906D
:101B9000009901B0704770B586B000F06AF824680B
:101BA000694DAC421DD169484FF40063066846F0A8
:101BB00020060660016801F020010091009A81680A
:101BC00041F0200181608268614802F0200200F04B
:101BD00055F800220021122003F028F8122003F00B
:101BE00042F806B070BD70B586B000F042F82568C6
:101BF000584EB5423BD15848584D816841F000518C
:101C00008160826802F0005200920099036843F0FC
:101C10000103036002681023514802F0010200F042
:101C20002DF85048432128604FF4806040222861FD
:101C300069604FF48070AA6000234FF40061E8618E
:101C40004FF40052EB6069612846AA612B626B6217
:101C500000F09AF808B102F0CDFFA5600022AC6355
:101C60000021362002F0E2FF362002F0FCFF06B031
:101C700070BD044601A8142103F020B80092009919
:101C80000322019300210292039101A903F01AB8E3
:101C900080B50068354A3449904209D1086840F05F
:101CA00002000860096801F002010091009801BD7E
:101CB0002F4A904212D10B68002243F010030B60B0
:101CC000086800F01000009000993620002102F012
:101CD000ADFF3620BDE8024002F0C5BF01BD38B5FA
:101CE00086B0FFF7C6FF2468224DAC4228D11A48BF
:101CF000816841F480218160826802F48022009230
:101D00000099036843F00803036002684FF44073CE
:101D1000194802F008020092009902220193002162
:101D20000292039104910721059101A902F0CAFFD3
:101D300000220021272002F079FF272002F093FFE4
:101D400007B030BDF444025800200240D844025885
:101D50000014025800740040E0440258840400203B
:101D60000000025810000240E844025800040040FD
:101D70000010004000480040000C02580148406834
:101D8000704700BF000000202DE9F84F0446FFF720
:101D9000F5FF002C009000F0C780236800F05BF98D
:101DA00004F13405DFF8BC04DFF8BC145345DFF858
:101DB000BC24DFF8BC64DFF8BC74DFF8BCC4DFF817
:101DC000BCE418BF4B45DFF8B88427D0434518BFA3
:101DD000734523D0634518BFBB421FD0B34218BF21
:101DE00093421BD08B4218BF834217D0DFF894B4C4
:101DF0005B451CBFDFF890B45B450FD0DFF88CB4B7
:101E00005B451CBFDFF888B45B4507D0DFF884B4BE
:101E10005B451CBFDFF880B45B453BD153454FF0B9
:101E2000000B85F800B04FF0020B85F801B018BF29
:101E30004B451ED0434518BF73451AD0634518BFA4
:101E4000BB4216D0B34218BF934212D08B4218BF88
:101E500083420ED0DFF82C0483421CBFDFF8281425
:101E60008B4206D0DFF8242493421CBFDFF8200405
:101E700083421868400840001860009E2368186874
:101E8000C10740F19980FFF779FF801B0628F5D341
:101E9000202046E0DFF8040483421CBFDFF8001472
:101EA0008B4217D0DFF8FC2393421CBFDFF8F80306
:101EB00083420FD0DFF8F4138B421CBFDFF8F0230E
:101EC000934207D0DFF8EC0383421CBFDFF8E8132E
:101ED0008B4225D1002202262A706E701E68A068EF
:101EE00040286FF3101621D1102024E0B0F5005FD8
:101EF0000AD1032E00F29180DFE806F00D0A0D02F0
:101F0000B1F1C07F79D106E0022E04D9F61E74D15A
:101F1000C80140F18280402101222962012048E06D
:101F20004020286203216970012043E080280CBF13
:101F30004FF4804000200643E76820696269A16988
:101F40000743E0691743226A0F430743DFF86C0336
:101F500046EAD70646EA12161E6021681423411885
:101F60002046B1FBF3F39B00AB6200F0D4FE00F01F
:101F70006AF8204600F020FFA068802804BF0021F6
:101F80006160E96A20790860286B6A6B426060686A
:101F900038B1092805D2204600F05CFF00F044F873
:101FA00003E00021A963E963296400210122296279
:101FB00000206A70BDE8F28F1E68A068DFF8C014C8
:101FC000E2680E402169064360691643A2690E4328
:101FD000E1690643206A1643626A0E430643042AF7
:101FE00003D1E16A206B01430E431E6023685A69E6
:101FF000606AD20840EAC20204280ED1A66AE16AE9
:10200000324351B1A06900287FF470AF002E18BF91
:10201000022E3FF47DAFFFF473AF5A61204600F00B
:102020007AFE00F008F8A4E7A96B00200860E86BCE
:102030002A6C4260704795F828203F2102F01F0269
:1020400091408160704795F82820012102F01F021D
:10205000914041607047DFF82CA4DFF82C94704762
:102060002DE9F84F044600250CB90120E7E004F102
:1020700034063078012808BF0220F7D001273770D6
:102080007078012840F0D5800220DFF8F8B3707036
:10209000DFF8F4A335622068DFF8DC71DFF8DC815B
:1020A000DFF8DC91584518BF504528D0484518BF87
:1020B000404524D0B8421CBFDFF8B8C160451ED0EF
:1020C000DFF8ACE170451CBFDFF8A0C1604516D059
:1020D000DFF8B8C360451CBFDFF888E170450ED05B
:1020E000DFF8A0C160451CBFDFF89CC1604506D089
:1020F000DFF898E170451CBFDFF894C1604500F03F
:10210000A0F8204600F092FD2068584518BF5045C1
:1021100031D0484518BF40452DD0B8421CBFDFF82C
:102120005411884227D0DFF8482190421CBFDFF8C5
:102130003C3198421FD0DFF8541388421CBFDFF8AF
:102140002421904217D0DFF83C3198421CBFDFF8C1
:10215000381188420FD0DFF8342190421CBFDFF8DD
:102160003031984207D0DFF8281388421CBFDFF8CF
:10217000282190420CD1036823F01E0343F016037C
:102180000360F06888B12068016841F008010BE045
:10219000026822F00E0242F00A020260F06820B1EA
:1021A0002068016841F004010160F06A0268D1030F
:1021B00003D5036843F480730360B06B18B1016802
:1021C00041F4807101602068584518BF504526D001
:1021D000484518BF404522D0B8421CBF254A90420E
:1021E0001DD0234988421CBF204B984217D000F0D5
:1021F00035F81CBF1B49884211D0224B98421CBFA6
:10220000214A90420BD0214988421CBF204B984262
:1022100005D000F01FF81CBF1F49884204D1036895
:1022200043F00103036009E0026842F0010202602A
:1022300004E035704FF40061316201252846BDE8A5
:10224000F28FD0F800C04FEA5C0C4FEA4C0CC0F89B
:1022500000C07047DFF8382290427047DFF82C2228
:10226000904270472804024010040240B800024027
:10227000A000024088000240700002405800024066
:1022800040000240400402405804024070040240F2
:1022900088040240A0040240B804024008540258D6
:1022A0001C5402583054025844540258585402588E
:1022B0006C5402588054025894540258F8ABFDA74D
:1022C0002DE9F14F30B100F134014A78022A03D0F0
:1022D000802008620120D1E0DFF8A891DFF8A88112
:1022E0000668DFF8B001DFF8B021DFF8A031DFF8D1
:1022F000AC41DFF8AC514E45DFF8A8A1DFF8A8B13A
:10230000DFF8A8C1DFF8A8E118BF464525D076451B
:1023100018BF664521D05E4518BF56451DD0AE4258
:1023200018BFA64219D09E4218BF964215D08642C9
:102330001CBFDFF88071BE420FD0DFF87C71BE4257
:102340001CBFDFF87871BE4207D0DFF84471BE428F
:102350001CBFDFF8BC78BE4230D104274E454F7019
:1023600018BF464525D0764518BF664521D05E4545
:1023700018BF56451DD0AE4218BFA64219D09E4286
:1023800018BF964215D086421CBFDFF8280186424E
:102390000FD0DFF824118E421CBFDFF820219642B7
:1023A00007D0DFF8EC0086421CBFDFF864188E42CD
:1023B00039D132685208520032605EE0376827F047
:1023C0000E073760009E36684E4518BF464525D03B
:1023D000764518BF664521D05E4518BF56451DD0CD
:1023E000AE4218BFA64219D09E4218BF964215D0E1
:1023F00086421CBFDFF8BC0086420FD0DFF8B82051
:1024000096421CBFDFF8B4309E4207D0DFF8800050
:1024100086421CBFDFF8F827964209D133685B0873
:102420005B00336008E0306840084000306024E022
:102430003268520852003260C86A036823F480731D
:10244000036091F828204B6A012002F01F0290409F
:1024500058600A6B486B5060886B30B1026822F498
:1024600080720260CB6B086C5860002201200A70F9
:102470004870C96909B1009888470020BDE8F28F0B
:102480003F8010FE1000024028000240100402406D
:10249000A00402404004024028040240B800024068
:1024A000A000024088000240700002405800024034
:1024B0004000024058040240700402408804024078
:1024C0002DE9FE4F0021DFF8E428019113684FF455
:1024D000165504460121DFF84CA7B3FBF5F502952C
:1024E00004F13405686A08230090DFF83C97DFF8B0
:1024F000C0B8DFF8C0880668D0F800E0226852450E
:1025000018BF4A4533D0424518BF5A452FD0DFF88F
:10251000A479BA421CBFDFF82079BA4227D0DFF88D
:102520009879BA421CBFDFF81479BA421FD0DFF89D
:102530001079BA421CBFDFF80C79BA4217D0DFF825
:102540007C79BA421CBFDFF80079BA420FD0DFF8BD
:102550007079BA421CBFDFF8F478BA4207D0DFF8CE
:10256000F078BA421CBFDFF85C79BA4242D100F081
:1025700042FB03FA00F0064200F09480524518BF77
:102580004A4533D0424518BF5A452FD0DFF82409B9
:1025900082421CBFDFF8A008824227D0DFF818096A
:1025A00082421CBFDFF8940882421FD0DFF89008F7
:1025B00082421CBFDFF88C08824217D0DFF8FC088B
:1025C00082421CBFDFF8800882420FD0DFF8F0089B
:1025D00082421CBFDFF87408824207D0DFF870081F
:1025E00082421CBFDFF8DC08824248D1106800F04C
:1025F000040047E0DFF8D068B2421CBFDFF8CC68C7
:10260000B24218D0DFF8C878BA421CBFDFF8C468FD
:10261000B24210D0DFF8C068B2421CBFDFF8BC780D
:10262000BA4208D0DFF8B868B2421CBFDFF8B4681D
:10263000B24240F0DE82166895F8287007F01F0C51
:1026400004278DF800C007FA0CF7BC461EEA0C0FF1
:10265000019700F04D82770740F14A82C0F804C02C
:10266000300440F1FF81F10300F13A8269690029E9
:1026700000F0BF82204603B0BDE8F04F0847106865
:1026800000F0080070B1106820F00400106095F8A8
:102690002820009802F01F02934083602A6A42F0CB
:1026A00001022A6295F82800DFF8087800F01F0080
:1026B00026FA00F2D30741D52268524518BF4A4591
:1026C00032D0424518BF5A452ED0BA421CBFDFF85F
:1026D00068379A4228D0DFF8E0379A421CBFDFF80B
:1026E0005C379A4220D0DFF858379A421CBFDFF897
:1026F00054379A4218D0DFF8C4379A421CBFDFF82B
:1027000048379A4210D0DFF8B8379A421CBFDFF83A
:102710003C379A4208D0DFF838379A421CBFDFF8BE
:10272000A4379A4240F093805269120606D5814040
:1027300000988160296A41F00201296295F8280019
:10274000042200F01F0002FA00F006423FD0216888
:10275000514518BF494531D0414518BF59452DD085
:10276000B9421CBFDFF8D026914227D0DFF84837A6
:1027700099421CBFDFF8C42691421FD0DFF8C02663
:1027800091421CBFDFF8BC36994217D0DFF82C27E6
:1027900091421CBFDFF8B02691420FD0DFF82037FE
:1027A00099421CBFDFF8A426914207D0DFF8A0268B
:1027B00091421CBFDFF80C3799424AD109688A0759
:1027C00005D5009B9860286A40F00400286295F8BF
:1027D0002810102201F01F0102FA01F10E4257D019
:1027E0002068504518BF48452DD0404518BF584572
:1027F00029D0B8421CBFDFF84026904223D000F019
:102800000DFA1CBFDFF8342690421CD0FFF726FDDE
:102810001CBFDFF83036984215D0DFF8A026904272
:102820001CBFDFF8242690420DD000F0F3F91CBF46
:10283000DFF81826904206D0FFF70CFD1CBFDFF82A
:102840008436984207D1006800F0080006E010685E
:1028500074E70968BBE7006800F00400C0B10098A5
:102860008160206801684A0307D5006801030BD521
:10287000696969B1204688470AE00168CA0503D43E
:10288000036823F008030360E96809B1204688471C
:1028900095F82810202001F01F0100FA01F10E42E6
:1028A0003AD02068504518BF48452DD0404518BF44
:1028B000584529D0B8421CBFDFF87C25904223D070
:1028C00000F0ACF91CBFDFF87465B0421CD0FFF714
:1028D000C5FC1CBFDFF86C35984215D0DFF8DC650D
:1028E000B0421CBFDFF8602590420DD000F092F995
:1028F0001CBFDFF85865B04206D0FFF7ABFC1CBF29
:10290000DFF8C035984203D1006800F0100002E003
:10291000006800F00200002847D00098816020681D
:102920006978042927D1026822F016020260206823
:10293000436923F080034361E968002904BF6869A3
:10294000002804D02068016821F00801016095F892
:10295000282000993F2002F01F029040886000204C
:10296000287001226A70E969002920D0204603B04E
:10297000BDE8F04F084701684A0307D50068010326
:102980000FD4296989B1204688470EE00168CA053D
:1029900007D40368012123F010030360002028708E
:1029A0006970A96809B120468847286A002800F0A4
:1029B0002081296AC8074FD504226A7020685045D3
:1029C00018BF484531D0404518BF58452DD0B842B2
:1029D0001CBFDFF86414884227D0DFF8DC24904263
:1029E0001CBFDFF8583498421FD0DFF854148842D7
:1029F0001CBFDFF85024904217D0DFF8C034984253
:102A00001CBFDFF8441488420FD0DFF8B424904292
:102A10001CBFDFF83834984207D0DFF834148842FE
:102A20001CBFDFF8A024904217D103685B085B004D
:102A300003600298019A521C90420192216802D3CD
:102A40000A68D307F6D4002028700968CA0759BF5E
:102A50000120687003236B70C4E0016849084900D5
:102A60000160E6E7B0063BD42068504518BF4845F2
:102A70002DD0404518BF584529D000F0C5F81CBFDF
:102A8000DFF8B423904222D000F0C8F81CBFDFF872
:102A9000AC1388421BD0FFF7E1FB1CBFDFF8A43367
:102AA000984214D000F0ACF81CBFDFF89C23904291
:102AB0000DD000F0AFF81CBFDFF89013884206D0AD
:102AC000FFF7C8FB1CBFDFF8FC33984204D1016854
:102AD00021F00801016003E0026822F004020260B4
:102AE000E968002918D0204603B0BDE8F04F084738
:102AF0009DF800C0022707FA0CF7BC461EEA0C0F2F
:102B0000019758D0B70756D5C0F804C0300409D58E
:102B1000F10349D4296900296BD0204603B0BDE8F0
:102B2000F04F0847B0063FD42068504518BF4845CD
:102B30002DD0404518BF584529D000F065F81CBF7E
:102B4000DFF8F422904222D000F068F81CBFDFF8D2
:102B5000EC1288421BD0FFF781FB1CBFDFF8E43288
:102B6000984214D000F04CF81CBFDFF8DC229042F1
:102B70000DD000F04FF81CBFDFF8D012884206D00D
:102B8000FFF768FB1CBFDFF83C33984204D10168B3
:102B900021F01401016003E0026822F00A020260E1
:102BA0000020012128706970A96811B3204603B084
:102BB000BDE8F04F08479DF80070BB401EEA030FC8
:102BC00017D0330715D5166826F00E06166095F84F
:102BD000282002F01F02914041600120286200215C
:102BE00029706870A96921B1204603B0BDE8F04F93
:102BF0000847BDE8F78F95F8280000F01F007047E0
:102C0000DFF8B81288427047DFF8A8128842704790
:102C1000B8040240DFF8A83298427047DFF89832D3
:102C2000984270471000024028000240F0B5446E00
:102C3000876E856D6760C46E2E4614B1046F476F52
:102C400067600468A84FBC421CBFA84FBC4229D093
:102C5000584FBC421CBF564FBC4223D0954FBC427C
:102C60001CBF754FBC421DD0934FBC421CBF734F5D
:102C7000BC4217D0724FBC421CBF724FBC4211D035
:102C80008E4FBC421CBF704FBC420BD08C4FBC421D
:102C90001CBF6E4FBC4205D06D4FBC421CBF894F5C
:102CA000BC4211D190F85C703F2607F01F07BE4070
:102CB000AE60256825F48025256063608068402823
:102CC00026D0A160E260F0BD7F4DAC421CBF7F4FBB
:102CD000BC4211D07E4DAC421CBF7E4DAC420BD0ED
:102CE0007D4FBC421CBF7D4DAC4205D07C4DAC42FB
:102CF0001CBF7C4FBC42E6D190F85C50012705F028
:102D00001F0507FA05F57560636080684028D8D113
:102D1000A260E160F0BDF0B50168734A91421CBF4A
:102D2000724B994229D0234CA1421CBF204A9142A8
:102D300023D0604B99421CBF3F4CA1421DD05E4A3C
:102D400091421CBF3D4B994217D03D4CA1421CBF44
:102D50003C4A914211D0594B99421CBF3A4CA14276
:102D60000BD0574A91421CBF384B994205D0384C82
:102D7000A1421CBF534A914211D101F0FF03890ABD
:102D8000103B1824B3FBF4F20FF2881502F007068B
:102D90008902AF5D042AC76503D3091D01E0090A52
:102DA000090281650846F0BD000000000C0000200B
:102DB00058000240400002400122F0B5424D046834
:102DC000AC421CBF414EB442234611D0404FBC42DE
:102DD0001CBF404DAC420BD03F4EB4421CBF3F4FD6
:102DE000BC4205D03E4DAC421CBF3E4EB4420DD15C
:102DF00004F0FF01083914233D4DB1FBF3F13D4BC5
:102E000003EB810301F01F018A4011E004F0FF0190
:102E100010391824384DB1FBF4F43849CB18A92BDC
:102E2000374B38BF083403EB840304F01F04A2407F
:102E3000826645660366F0BD88000240B800024025
:102E40001004024028040240580402408804024052
:102E5000A00402400179002900D170470929F0B58A
:102E600027D20268184B9A421CBF184DAA4211D0B3
:102E7000174EB2421CBF174B9A420BD0164DAA42B6
:102E80001CBF164EB24205D0154FBA421CBF154D9D
:102E9000AA4204D11B4B1C4A03EB810403E01B4AEA
:102EA00002EB81041A4A0123491E8B400267C46663
:102EB0004367F0BD70000240A000024040040240A1
:102EC00070040240B8040240085402581C540258CE
:102ED0003054025844540258585402586C54025802
:102EE00080540258945402581000024028000240B6
:102EF000805802580058025880080240F0FBFDBF7D
:102F000000080240FC58025840590258FC08024090
:102F1000400902400006101600061016704730B433
:102F2000002513E050F8042BD30744BFA9F1010397
:102F30009A18091F042942F8045BFAD213468C0739
:102F400044BF15809B1CC90748BF1D7050F8041B67
:102F50000029E7D130BC704710B500F17C010A7838
:102F6000012A01D1022010BD012324220B704A60E6
:102F700002681368146864086400146000224266E2
:102F8000006823F00053036020234B6000200A7088
:102F900010BD70B500F01FF801D1022070BD00F027
:102FA00020F822F0604209E070B500F014F801D179
:102FB000022070BD00F015F822F0606211438160BC
:102FC000204600F01DF82068202100220660002025
:102FD00069602A7070BD044604F17C0528780128D8
:102FE0007047012224202A70686020680668036800
:102FF0005B085B0003602068826870470000000087
:10300000BFB500BF14A300BF15A702AAD3E90045AE
:10301000D7E900CEC2E90045CDE900CE416E11B935
:103020000121012213E0016802AC8A688968520E0E
:1030300002F00702490F655CA45C1DF801101DF841
:103040000220ED00E40095FBF1F194FBF2F2683010
:1030500041800280BFBD00000101010307010000A3
:103060000804020408010101704770477047704767
:103070002DE9F047044600262068B046DFF8AC5939
:10308000010122D5626E4AB1B2F5801F0BD0B2F5B4
:10309000001F15D0B2F5401F09D014E0EB6943F4CE
:1030A0000033EB6105E0022100F07BFB06463000B7
:1030B0000AD1296C606E21F440110143296404E0B7
:1030C00000F071FBF2E70126B0462068C1051CD56F
:1030D000626D042A17D8DFE802F0030E120505001E
:1030E00000F054FB30000FD1296C606DC90840EA34
:1030F000C101296409E000F053FB0646F2E7002114
:1031000000F04AFBF9E70126B0462068810520D58A
:10311000A26D4AB1402A12D0802A14D0C02A18BF0A
:10312000B2F5807F02D012E000F030FB30000FD10A
:10313000296CA06D21F4E0710143296409E000F0DD
:103140002FFB0646F2E7002100F026FBF9E70126F7
:10315000B046206804F18407410523D53A6A62B17C
:10316000B2F5001F14D0B2F5800F15D0B2F5C00F24
:1031700018BFB2F5000F02D012E000F007FB3000DC
:103180000FD1A96C386A21F460010143A96409E0F8
:1031900000F006FB0646F2E7002100F0FDFAF9E731
:1031A0000126B0462068010523D57A6A62B1B2F1E2
:1031B000807F14D0B2F1007F15D0B2F1407F18BFEC
:1031C000B2F1806F02D012E000F0E0FA30000FD1CF
:1031D000A96C786A21F0E0610143A96409E000F07C
:1031E000DFFA0646F2E7002100F0D6FAF9E70126F9
:1031F000B046206881011AD5A26C42B1102A04D0D1
:10320000202A0DD0302A02D00FE000F0BFFA3000A3
:103210000CD1E96BA06C21F030010143E96306E0B9
:10322000022100F0BEFA0646F1E70126B04620680A
:10323000C10423D5E26D62B1B2F5805F14D0B2F55E
:10324000005F15D0B2F5405F18BFB2F5804F02D0D5
:1032500012E000F09BFA30000FD1296CE06D21F4F0
:10326000E0410143296409E000F09AFA0646F2E7DA
:10327000002100F091FAF9E70126B04620688104A8
:1032800022D5226E92B1B2F5803F0BD0B2F5003F4D
:1032900015D0B2F5403F1CBFB2F5802FB2F5A02F7C
:1032A00004D00FE0012100F07CFA064630000AD17C
:1032B000296C206E21F4E0210143296404E000F030
:1032C0006AFAF2E70126B0462068410422D5BA6ABC
:1032D00092B1B2F1805F0BD0B2F1005F15D0B2F1C4
:1032E000405F1CBFB2F1804FB2F1A04F04D00FE09D
:1032F000012100F056FA064630000AD1A96CB86ADE
:1033000021F0E0410143A96404E000F044FAF2E74F
:103310000126B046206801041AD5E26E42B1B2F12E
:10332000805F03D0B2F1005F0BD00FE000F02EFA07
:1033300030000CD1296CE06E21F04051014329642A
:1033400006E0012100F02DFA0646F1E70126B0461D
:103350002068C10118D5626C032A13D8DFE802F097
:1033600004020D0400F012FA30000CD1E96B606C1D
:10337000890840EA8101E96306E0022100F011FAC0
:103380000646F1E70126B0462068410221D5DFF864
:103390003098D9F8002042F48072C9F80020FEF776
:1033A000EDFC8246D9F80000C10500F1B981FEF7B5
:1033B000E5FCA0EB0A006528F4D308E0FEF7DEFC8C
:1033C000A0EB090041F289318842C0F0C781032691
:1033D000B0462278D10725D5A06F68B1082807D05C
:1033E00010281AD018281CBF2028282804D017E03D
:1033F000012100F0D6F90646300012D1696CA06FA9
:1034000021F03801014369640CE02960286EF96AF3
:10341000C1F30B0108432866DBE700F0BCF9EAE7DB
:103420000126B04621788A0719D5606F052814D87F
:10343000DFE800F0070310070707012100F0B1F9EA
:10344000064630000AD1696C606FC90840EAC101C4
:10345000696404E000F09FF9F2E70126B0462178A4
:103460004A0719D5F868052814D8DFE800F00703E3
:1034700010070707012100F094F9064630000AD131
:10348000A96CF868C90840EAC101A96404E000F029
:1034900082F9F2E70126B04621788A0621D5B8687C
:1034A00088B1B0F1805F0BD0B0F1005F14D0B0F103
:1034B000405F1CBFB0F1804FB0F1A04F03D00EE0D1
:1034C00000F06EF9064630000AD1696CB86821F048
:1034D000E0410143696404E000F065F9F2E7012688
:1034E000B04621784A0621D5786988B1B0F5806F59
:1034F0000BD0B0F5006F14D0B0F5406F1CBFB0F525
:10350000805FB0F5A05F03D00EE000F049F90646F9
:1035100030000AD1A96C786921F4E0510143A96413
:1035200004E000F040F9F2E70126B04621780A06EF
:1035300021D5B86988B1B0F5005F0BD0B0F5804FE8
:1035400014D0B0F5C04F1CBFB0F5004FB0F5204F00
:1035500003D00EE000F024F9064630000AD1A96C31
:10356000B86921F460410143A96404E000F01BF94B
:10357000F2E70126B04621780A070FD5D4F880007B
:10358000B0F5805F05D100F00EF938B14FF00108B9
:1035900004E0696C21F44051084368642078C10656
:1035A0000ED53869B0F5807F05D100F0FCF838B150
:1035B0004FF0010804E0A96C21F440710843A864AD
:1035C0002068010319D5FA6932B1B2F5803F0FD0F6
:1035D000B2F5003F03D00EE000F0E2F806463000FE
:1035E0000AD1A96CF86921F440310143A96404E0CF
:1035F00000F0D9F8F2E70126B04621684A031BD54E
:103600003868B0F5801F06D0B0F5001F0ED0B0F5B9
:10361000401F02D00EE000F0B4F830000BD1696C0E
:10362000386821F440110143696405E000F0B3F803
:103630000646F2E70126B0462168CA0317D5E06CBA
:1036400018B1B0F5803F0BD00FE000F09AF83000D1
:103650000CD1E96BE06C21F480310143E96306E0B1
:10366000022100F09EF80646F1E70126B0462168E7
:103670008A0004D500F097F808B14FF001082168DE
:103680008A0318D5E06F58B1B0F5807F06D0B0F549
:10369000007F18BFB0F5407F02D00AE000F071F85B
:1036A000300007D1696CE06F21F440710143696417
:1036B00001E00126B0462268D00205D5296C206FB2
:1036C00021F00041014329642168CA0005D52B6817
:1036D000386B23F4804303432B6021688A0205D5AD
:1036E0002B6CA06E23F0807303432B6421684A0087
:1036F00007D52B6823F400432B602968786B0143BE
:1037000029602268002A05D5EB6B206D23F0405319
:103710000343EB635FEA080018BF0120BDE8F087B0
:1037200030007FF455AE286EF96A00F4407001F461
:10373000407188420BD0286E296E41F48031296691
:103740002A6E20F4407022F480322A662866F86AD5
:10375000B0F5807F06D1FEF711FB8146286E810708
:103760007FF52CAEF86A296800F44072B2F5407F0C
:1037700021F47C5104D1DFF8082602EA101211432B
:1037800043E6E96941F40031E9617047E86940F4D2
:103790000030E8617047012104F1240000F06DBAA7
:1037A0000021201D10E2022104F1240000F065BA7E
:1037B00000B50146B1F5807F89B0DFF8C805DFF8B4
:1037C000C82510D1516801F0070104294ED8DFE85F
:1037D00001F0AB866975030000F0B3F815D0B1F1C4
:1037E000805F15D091E0B1F5007F13D1516811F4DD
:1037F000E0712FD0402972D0802953D0C0295DD0EC
:10380000B1F5807F32D100F09CF875D0B1F1805FC6
:1038100078D07AE0B1F5806F16D1D16811F46001EB
:1038200018D0B1F5001F5AD0B1F5800F3AD0B1F5DC
:10383000C00F43D0B1F5000F18D100F082F85BD073
:10384000B1F1805F5ED060E0B1F5006F16D1D16854
:1038500011F0E06168D0B1F1807F40D0B1F1007F1C
:1038600020D0B1F1407F29D0B1F1806F66D100F056
:1038700068F841D0B1F1805F44D046E0B1F5805F97
:103880001FD1516811F4E0414ED0B1F5805F26D0D0
:10389000B1F5005F06D0B1F5405F0FD0B1F5804FB4
:1038A00005D04BE0684600F08BF8009847E000F048
:1038B00048F821D0B1F1805F24D026E0DFF8CC04B5
:1038C0003DE0B1F5002F24D1D16811F4403106D08C
:1038D000B1F5803F08D0B1F5003F0AD02EE003A833
:1038E00000F042F803982AE0684600F069F8029870
:1038F00025E000F026F802D1DFF894041FE0B1F1D2
:10390000805F02D1DFF88C0419E0B1F1005F16D0BE
:1039100014E0B1F5803F11D1106810F4803003D06D
:10392000B0F5803F05D009E006A800F001F907983E
:1039300005E003A800F018F8059800E0002009B0A1
:1039400000BD116811F04051704780B500F02BFCAC
:10395000DFF84824DFF848141368C3F30212895CC7
:1039600001F01F01C84002BD30B500F084F8DA6BE9
:1039700005F01005C1F3053100F08AF81DD000F004
:1039800080F802D0022C06D008E000F0B7F8996B5E
:1039900000F04EF807E09FED862A01E09FED852AB2
:1039A000996B00F055F8996B00F097F8996B00F05F
:1039B00085F8996B00F075F801E000F031F82BE024
:1039C00030B500F058F85A6C05F48075C1F3055114
:1039D00000F05EF81DD000F054F802D0022C06D0A2
:1039E00008E000F08BF8196C00F022F807E09FED7A
:1039F000702A01E09FED6F2A196C00F029F8196C0C
:103A000000F06BF8196C00F059F8196C00F049F8E7
:103A100001E000F005F800BF80ED020A30BD0000B3
:103A200000229FED650A0260426070471044025810
:103A3000F7EE001AC1F3080101EE101AB8EE411AB0
:103A400031EE000A70EE211A20EEA10A7047000044
:103A5000DFED5A1AC2EE200AC1F3080101EE101A76
:103A6000B8EE411A00EE211AB7EE000A31EE000A54
:103A700020EE800A7047DFF82C339C6A996ADD6A71
:103A8000704714F0030400EE901AF8EE600A7047D5
:103A9000C2F3CC025543002900EE105AB8EE400A9A
:103AA0007047C1F3066100EE901AF8EE600A70EEFE
:103AB000810A80EE200ABCEEC00A7047C1F30641BD
:103AC00000EE901AF8EE600A70EE810AC0EE200A4D
:103AD000FCEEE00AC0ED010A7047B7EE001AC1F330
:103AE000462100EE901AF8EE600A70EE810AC0EEF0
:103AF000200AFCEEE00AC0ED000A704719689FED4D
:103B00002F1A20EE010A8A060CD51968DFF88042C8
:103B1000C1F3C101CC4001EE104AB8EE411AC1EE2A
:103B2000200A70479FED272AC2EE200A7047000046
:103B300030B5FFF7A0FF5A6B05F00105C1F3051181
:103B4000FFF7A6FF1DD0FFF79CFF02D0022C06D086
:103B500008E0FFF7D3FF196BFFF76AFF07E09FED5F
:103B6000142A01E09FED132A196BFFF771FF196BFF
:103B7000FFF7B3FF196BFFF7A1FF196BFFF791FF79
:103B800001E0FFF74DFF47E710B500F08DFADFF8D1
:103B90000832DFF80C221C68DFF80C12C4F3032390
:103BA000D25C02F01F02D0400860086810BD00001F
:103BB0000024F44A0024744A000000000000003988
:103BC000004802580024744CF8B500F0D0F801D138
:103BD0000120F2BD286820F0806000F0ADF80746B3
:103BE0002968080120D5FEF7C9F8C01B0328F7D3C0
:103BF0000320F2BD012C04D1E86A40F48010E86291
:103C000003E0E96A41F40011E962286840F080604D
:103C100000F092F80446296808012CD4FEF7AEF8AB
:103C2000001B0328F7D3E3E7A86A316820F47C304F
:103C300040EA013000F083F8A863E96A706921F076
:103C4000C0010143E962E96AB06921F02001014342
:103C5000002CE962E96A21F01001E962E86B00F0EA
:103C600065F8E863E86A40F01000E862C2D1E86AEB
:103C700040F40020C3E70020F2BDF8B500F077F86B
:103C800001D10120F2BD286820F0805000F054F8E6
:103C900007462968880020D5FEF770F8C01B032866
:103CA000F7D30320F2BD012C04D1E86A40F40000F0
:103CB000E86203E0E96A41F08071E962286840F057
:103CC000805000F039F80446296888002CD4FEF7AB
:103CD00055F8001B0328F7D3E3E7A86A316820F002
:103CE0007C7040EA015000F02AF82864E96A7069A3
:103CF00021F440610143E962E96AB06921F400718D
:103D00000143002CE962E96A21F48071E962686C80
:103D100000F00CF86864E86A40F48070E862C2D190
:103D2000E86A40F48000C3E70020F2BDF1696FF358
:103D3000CF0040EAC10070472860FEF71FB8A862B4
:103D4000B1687068F268491E4902401EC0F308005D
:103D5000521E01F47E4112040843316902F4FE024E
:103D60001043491E090601F0FE410843704706460C
:103D70000C4DA86A0C4600F00300032870470000B1
:103D8000CFFFFF0000127A004C4402580080BB00B5
:103D90000090D00300093D00184402582044025806
:103DA000A8670008004402580C000020D3BBD9B11A
:103DB000B2F5803F5BD2022A1ED98C46B1FBF2F1EC
:103DC00002FB11C31B0443EA1043B3FBF2FC02FBEA
:103DD0001C3380B240EA0343B3FBF2F002FB103223
:103DE00040EA0C4000237047022A05D98446B0FB04
:103DF000F2F002FB10C270474AB105D100F0010297
:103E000049085FEA3000704700220023704701F044
:103E100067B80B000200002100207047F7D3002292
:103E200000237047904271EB030CF2D370B5B1FAE6
:103E300081F4B3FA83F52C1BA340C4F1200532FAB8
:103E400005F63343A2405FF00046E64002E05B081F
:103E50005FEA3202841A71EB030524BF204629462B
:103E60007641F4D302000B003000002170BD70B524
:103E7000B1FA81F4B2FA82F5C4F120046419B4F104
:103E80002006DAD3B2405FF00044F440002502E09F
:103E900052085FEA3303C61A71EB020E24BF3046A4
:103EA000714664416D41F3D302000B0020002900EC
:103EB00070BD00002DE9F041040088465AD0DFF8BB
:103EC0005463306800F00F00404502D200F0E1F882
:103ED00050D12078DFF82C53410706D52069AA6914
:103EE00002F07002824200F0CDF82078010706D57A
:103EF0006069EA6902F07002824200F0BCF8207842
:103F0000C10606D5A069EA6902F4E062824200F0C7
:103F1000ABF82078810606D5E0692A6A02F07002C3
:103F2000824200F09AF8207881070AD5E068AA69F1
:103F300002F00F02824204D2A969090940EA011085
:103F4000A8612078C10770D5AA69A06822F47062C0
:103F50000243AA616068022802D129688A0308E046
:103F6000032802D129688A0103E0012803D12968C6
:103F7000CA0503D46FE02B6859076CD52A69D208AB
:103F800040EAC2002861FDF7F9FE0746286961682A
:103F900000F03800B0EBC10F47D0FDF7EFFEC01BBB
:103FA00041F289329042F1D303203CE0207841076E
:103FB00006D52069AA6902F07002904200F062F80A
:103FC0002078010706D56069EA6902F07002904224
:103FD00000F051F82078C10606D5A069EA6902F41C
:103FE000E062904200F040F82078810606D5E06952
:103FF0002A6A02F07002904200F02FF800F054F8A4
:10400000AA69DFF81412DFF80832C2F30322895CD0
:1040100001F01F01C8401860DFF8F0010068BDE83A
:10402000F04100F05FBFBDE8F081217888070AD534
:10403000E068A96901F00F01884204D2AA69120957
:1040400040EA0210A861306800F00F008045ADD250
:1040500000F01FF8AAD00120E5E704D2296A21F078
:10406000700108432862704704D2E96921F4E061D5
:104070000843E861704704D2E96921F07001084300
:10408000E861704704D2A96921F070010843A86172
:1040900070473168090948EA01113160326802F05D
:1040A0000F0242457047000030B5564B564819691B
:1040B00011F0380104D010290AD018290AD069E07B
:1040C0001A68940667D51968C1F3C101C84030BDAC
:1040D000524830BD9C6A996ADD6A5A6B05F0010549
:1040E000C1F30511C2F3CC025543002900EE105A6A
:1040F000B8EE400A4CD014F0030400EE901AF8EE2B
:10410000600A02D0022C20D022E019689FED391AF3
:1041100020EE010A8A0608D51968C1F3C101C8401A
:1041200000F03CF8C1EE200A03E09FED332AC2EE16
:10413000200A186BF7EE001A00F02EF831EE000A94
:1041400070EE211A20EEA10A13E09FED2C2A01E067
:104150009FED2B2A186BDFED271AC2EE200A00F024
:104160001BF800EE211AB7EE000A31EE000A20EE2D
:10417000800A186BC0F34620401C00EE900AF8EE4F
:10418000600A80EE200ABCEEC00A10EE100A30BDB4
:10419000002030BD224830BDC0F3080001EE100AF7
:1041A000B8EE411A704710B5FFF7EEFC1D4A1A49E8
:1041B000136803F00F03CC5C1B4904F01F04E040BC
:1041C000086010BD80B5FFF7EEFF00F00FF8C3F3F5
:1041D000021206E080B5FFF7E6FF00F007F8C3F330
:1041E0000222895C01F01F01C84002BD0F4A0A4942
:1041F00013687047000000390024744C0024F44A0E
:104200000024744A004402580090D00308000020A3
:104210000C00002000200052A867000800127A005D
:1042200000093D0018440258100000201C440258A8
:10423000F8B5050017D02878DFF87064C1074AD5B3
:104240003069B16A00F03800102805D0182804BF82
:1042500001F00301022908D131688A033BD568685F
:10426000002840F01A810120F2BD6868B0F5803F57
:104270000FD038B9316821F480313160306820F4D2
:10428000802009E0B0F5A02F08D1316841F48021E9
:104290003160306840F48030306007E0326822F4EA
:1042A00080323260316821F480213160686868B101
:1042B000FDF764FD04463168880300F1EE80FDF7E8
:1042C0005DFD001B6528F6D30320F2BDFDF756FD0A
:1042D00004463068810340F1E080FDF74FFD001B8C
:1042E0006528F6D3F0E7FDF749FDC01B0328C0F0B1
:1042F000F380E9E7FDF742FDC01B0328C0F02B81E6
:10430000E2E7E868B8B1316821F01901084330608C
:10431000FDF734FD07463068410700F13781FDF7AE
:104320002DFDC01B0328F6D3CEE720F0FE402969FF
:1043300040EA0160DEE03068400840003060FDF790
:104340001DFD07463168480740F1D580FDF716FD91
:10435000C01B0328F6D3B7E7E869C0B1316841F064
:1043600080013160FDF70AFD07463068C10500F1A4
:104370001481FDF703FDC01B0328F6D3A4E7F06802
:10438000296A20F07C5040EA0160F060D5E0306896
:1043900020F080003060FDF7F1FC07463168C80569
:1043A000F4D5FDF7EBFCC01B0328F7D38CE7706F47
:1043B000400840007067FDF7E1FC0746706F810719
:1043C00040F1CD80FDF7DAFCC01B0328F6D37BE774
:1043D000306820F480503060FDF7D0FC074631682B
:1043E000880440F1E080FDF7C9FCC01B0328F6D328
:1043F0006AE7FDF7C3FCC01B6528C0F0DF8063E7F8
:1044000008B9306F09E00528306F06D140F004008C
:104410003067316F41F0010105E04008400030672E
:10442000316F21F004013167A86841F2893760B12A
:10443000FDF7A4FC0446306F810700F1CC80FDF746
:104440009DFC001BB842F6D33EE7FDF797FC0446FF
:10445000306F810740F1BF80FDF790FC001BB84230
:10446000F6D331E7FDF78AFCC01B0328C0F0C680F5
:104470002AE7FDF783FC401B0328C0F0118123E7E6
:10448000FDF77CFC05463168880140F10D81FDF7A0
:1044900075FC401B0328F6D316E7297841F2040483
:1044A0008A0728D53069B16A10F0380005D018287D
:1044B00008BF11F0030F7FF424AFE86831684A07A2
:1044C00002D500283FF4CFAE316821F0190108432E
:1044D0003060FDF753FC0746306841077FF503AFB6
:1044E00000F047FDA042706854D220F47C30296966
:1044F00040EA013070602878C1061ED53069B16A83
:1045000000F03800082806D0182804BF01F0030185
:1045100001297FF421AF3068C10503D5EA69802AFB
:104520007FF4A1AE00F025FDA04239D27068296A5F
:1045300020F0F84040EA816070602A7811070ED5BB
:10454000686900283FF433AF716F41F00101716772
:10455000FDF714FC0746706F81077FF5CBAE2A7814
:10456000930620D5A86900283FF432AF316841F4A2
:1045700080513160FDF702FC04463068810412D49A
:10458000FDF7FCFB001B0328F7D39DE600F0F1FCD0
:10459000A0427068BFF4C9AEA7E700F0EAFCA042F1
:1045A000BFF4EDAEC2E72878410714D5404C22682D
:1045B00042F480722260FDF7E1FB07462068C105E6
:1045C0007FF517AFA86801287FF41AAF306F40F06D
:1045D0000100306728E7686A002865D0316901F07A
:1045E000380118293FF43FAE0228306820F080706F
:1045F00030607FF445AFFDF7C1FB074631688801A5
:104600003FF530AFB26AA86A2A49EB6A0A40024312
:1046100042EA0312B262696B286BAA6B491E490217
:10462000401EC0F30800521E01F47E4112040843EC
:10463000E96B02F4FE021043491E090601F0FE4137
:1046400008433063F06A40084000F062716BA86C68
:104650006FF3CF0141EAC0017163F16A286C21F068
:104660000C010143F162F16A686C21F0020101431F
:10467000F162F16A41F48031F162F06A40F4003095
:10468000F062F16A41F48021F162F06A40F00100C9
:10469000F062316841F080713160FDF76FFB0546D3
:1046A000306881017FF5E5AE0020F2BD004402587C
:1046B000004802580CFCFFFFF8B5DFF8C464074659
:1046C0007268DFF8C044DFF8C054012A2ED180217F
:1046D000284600F0E4FB3A68DFF8B0349A4221D172
:1046E000DFF8AC0400F010FE2178221D0B46491CB7
:1046F00022F813002170C9B2802913D104F5027782
:104700004FF48072211D384601F002FA4FF0FF335A
:104710004FF480723946DFF87C04FBF7FDFD002082
:10472000207070608021284600F0B9FBD4F80402A4
:10473000821100EB5263411CC4F80412DB11B0EB90
:10474000C31006D128464FF48041BDE8F44000F084
:10475000A6BBF1BD10B5DFF82844204601F084FA6D
:10476000C0B2012804BF01216160002021462070F1
:104770000122DFF82004BDE81040FBF728BE2DE938
:10478000F0418AB0002400F0CFFB00F0E6F800F022
:1047900046F9DFF80404002201680025DFF8EC6325
:1047A0005F2741F001010160006800F00100009006
:1047B00000990B20002100F039FA0B2000F053FA89
:1047C00007A8002180E8320068461C2100F076FA34
:1047D0004FF44030DFF8B8436060082020610120CA
:1047E000A0614FF480604FF49062A0622660204682
:1047F000A560EA4EE560A58225776262E5622563E1
:10480000656384F8385000F0DCFB079507A9204663
:1048100001F030FAE2490622009140F2FF71019264
:104820002046029204220391694604920595DD4DCB
:1048300000F0B9FE03A8102100F040FA00F086F85D
:1048400000200121A860A86128462E60D64E6F6026
:1048500040F2BF37E9602A6101F084FA4FF48051D9
:104860002846039103A901F07AFB0021202202913E
:1048700069460092284601F07FFC00F067F8A964C1
:1048800001212E6405F140006F64C24EE964AA65FF
:1048900001F068FA2021002200916946029205F198
:1048A000400001F069FCC1484FF4E1313060002262
:1048B00071600C21B260F26030463261BC4F7161B0
:1048C00005F18008B261F26132627262B262FBF796
:1048D000E3FC00213046FEF75CFB00213046FEF78A
:1048E00063FB3046FEF738FB68463946242201F068
:1048F0000FF9B048C5F88000404601F06BFC00217C
:1049000016220091012101920023039100220293BB
:1049100069460492404601F01AFD05F1400001F09D
:104920002EFA00202023009007F1240200214046A7
:1049300001F064FC204600F03CFC284601F035FA0A
:1049400001228F493046FBF742FDFEE76846002111
:104950000022002380E80E00704718B5CBB0964CBB
:1049600009A821464C2201F0D3F801A8202100F02B
:10497000A5F91CA804F14C01BC2201F0C9F80220E1
:1049800001F08EFD002000908C4801684908490024
:10499000016002688A4802F001020092016841F455
:1049A00040410160026802F44042009200990268AE
:1049B0009304FCD501214FF4A022099118210A92F9
:1049C0000122159111211492022317910C2100222A
:1049D0001293139309A81693189319911A921B9284
:1049E000FFF726FC3F21032201910A210292402277
:1049F000049140210592002306914FF480620891B2
:104A00000021039301A80792FFF754FA0221002224
:104A10001C911CA83992FEF72BFB4CB010BDF8B5C9
:104A200086B0684614214FF4005600F047F96548F7
:104A3000654F046844F0040404600568524C05F0B6
:104A40000405059505990268604D42F080020260F8
:104A5000036803F0800300F0BFF842F00102026037
:104A6000036803F0010300F0B7F842F0200202608F
:104A7000036803F0200300F0AFF842F00202026086
:104A8000036803F0020300F0A7F842F00802026096
:104A9000036803F0080300F09FF842F04002026050
:104AA0000068002200F040000590059920464FF470
:104AB000814100F0F0F900224021284600F0EBF996
:104AC000434900220191694600963846029200F05F
:104AD000F9F80222322100F083F83E4F00F0F2F89C
:104AE0000222862100F07CF800F0ECF8002202217E
:104AF0000292204603920B2201916946009604928D
:104B000000F0E0F84FF4814101220091002301926E
:104B1000694602932046039300F0D4F84021012215
:104B2000002300910192029303936946284600F006
:104B3000C9F880210022009169460192284602921C
:104B4000002400F0BFF802224FF4E8510192002344
:104B500000910A220293694603933846049200F0BA
:104B6000B1F84FF42052022300920B2201936946C0
:104B7000029428460394049200F0A4F807B0F0BD14
:104B8000600500205C000020000402580020024064
:104B9000FC040020F8030020D84402580004004020
:104BA000040060086403002000100040004800403A
:104BB000B867000800740040246600082C04005800
:104BC00018480258E04402580008025800180258D9
:104BD0000000111100000258059305990268704702
:104BE0000192002300910B220293694603933846F9
:104BF00004927047704700000901020002D429485E
:104C000081547047284B02F00F021A4402F8041C2A
:104C10007047264B4FF6FF021968000200F4E0606F
:104C200011400843224908431860704738B51F4BAC
:104C30001C68C4F30223C3F10704052C28BF042415
:104C40001D1D072D34BF0023DB1E012505FA04F4CA
:104C5000641E2140994005FA03F35B1E1A4011437C
:104C6000BDE83440C8E7010007D4012200F01F016D
:104C70008A40104B400943F820207047401EB0F195
:104C8000807F10B501D3012010BD0B4C0F21606057
:104C90004FF0FF30FFF7B0FF00220721A260002095
:104CA000216010BD00E400E018ED00E00CED00E034
:104CB0000000FA0500E100E010E000E0002201F051
:104CC00015BC00002DE9F8470026DFF8E0210F238E
:104CD0000446884638E0DFF8D851AC4214BF0A25B4
:104CE00009258D4045EA0E054CF82750DFF8C4C170
:104CF000DCF80070C143D8F804500F40ED0348BF02
:104D00000743CCF80070DCF80470D8F804500F406A
:104D1000AD0348BF0743CCF804704FF0B04CDCF84B
:104D20000070D8F804500F40ED0248BF0743CCF89C
:104D30000070DCF804700F40D8F80410890248BFF6
:104D40000743CCF80470761CD8F8000030FA06F15E
:104D500000F09F800127B7403840F4D0D8F80450C5
:104D6000B100022D18BF122D12D1F50804EB850CED
:104D700001F01C0503FA05F9DCF820E0D8F810A0D2
:104D80002EEA090E0AFA05F545EA0E05CCF8205080
:104D9000256898F804904FEA460C4FF0030E0EFA7F
:104DA0000CFE6FEA0E0E0EEA050509F0030909FA7A
:104DB0000CF949EA05052560D8F80450012D18BF03
:104DC000022D03D0112D18BF122D13D1A568D8F8CC
:104DD0000C900EEA050509FA0CF949EA0505A560EB
:104DE000656825EA0707D8F80450C5F30015B540F3
:104DF0002F436760E7680EEA0705D8F8087007FADE
:104E00000CF73D43E560D8F80450ED009BD51768DA
:104E1000DFF8A4C001F00C0103FA01FE47F002071D
:104E20001760156805F002050095009FB7085CF84B
:104E3000275025EA0E0E214DAC4208BF002527D091
:104E40001F4DAC4208BF012522D01E4DAC4208BF09
:104E500002251DD01C4DAC4208BF032518D01B4DA8
:104E6000AC4208BF042513D0194DAC4208BF05253C
:104E70000ED0184DAC4208BF062509D0164DAC42E5
:104E800008BF072504D0154DAC427FF424AF082598
:104E900027E7BDE8F18702B90904816170474269DB
:104EA0000A408A4208BF090481617047F4440258ED
:104EB00000240258800000580804005800000258DE
:104EC0000004025800080258000C02580010025852
:104ED0000014025800180258001C02580020025802
:104EE0007047000038B504460D4D2878A8B10D4A2A
:104EF0004FF47A711368B1FBF0F0B3FBF0F0FFF7F9
:104F0000BDFE50B9102C08D2002221464FF0FF30D0
:104F1000FFF78CFEAC60002032BD012032BD00BF27
:104F2000000000200C00002038B50320FFF771FEC0
:104F3000FFF7BAF8114B124A1C681249C4F3032454
:104F4000155D05F01F05E8400860086819680E4BFC
:104F500001F00F01525C02F01F02D04018600120E6
:104F6000FFF7C0FF08B1012032BDFCF707FE0020AB
:104F700032BD06480068000C704700001844025813
:104F8000A86700080C000020100000200010005C42
:104F9000C06800F44060401E8041C00F7047CB0DD8
:104FA000143003F00403181830B5090D046801F03B
:104FB0001F0107258D4002FA01F1AC432143016036
:104FC00030BDF8B50025044600950CB90120F2BDAE
:104FD00004F13806F06920B92046FCF7DCFD3562A3
:104FE000357621688868820004D58B68DFF86C0507
:104FF00003408B6021688868C20015D48B68DFF895
:105000006005034043F080538B60DFF858150A6851
:10501000DFF85435B2FBF3F3009302E00099491E28
:10502000009100980028F9D121688868C00008D450
:10503000F269012542F01002F261306A40F001008D
:1050400030628868F269D30600D4400700F1AA8074
:10505000F26922F4807242F00202F2618868C007AD
:1050600023D4DFF80835DFF80825994218BF9142AC
:1050700008D1DFF80075DFF800C53868DCF800708B
:10508000384302E0DFF8F404006810F001000CD1AE
:10509000994216BF9142DFF8E814DFF8E8140A6875
:1050A000606822F47C1202430A60FFF762FF41F25B
:1050B000040188420CD3A068102809D1226B617DBD
:1050C000207F42EA413242EA004242F01C0208E0FC
:1050D000226B617DA06842EA4132217F024342EAAD
:1050E0000142207F012803D1216A491E42EA414240
:1050F000606A20B1A16A00F4787008430243216815
:10510000DFF88404CB6803401A43CA6022689168C0
:105110009068490730D400072ED4D368DFF86C14A8
:10512000277DE06A0B4043EA87330343D36031783D
:10513000012912D12368DFF858041F6971680740FC
:10514000B2683069491E47EA0147F16817430F43C7
:10515000074347F001071F6104E02068016949081F
:105160004900016121680A69606B22F070420243C4
:1051700020460A6100F00AFCE1682068012907D195
:10518000026BA1691209491E41EA0212026303E09F
:10519000016B090909010163F06920F0020040F088
:1051A000010003E0F069012540F01000F06128469D
:1051B000F2BDF8B500F054F816BFB042DFF8C013E6
:1051C000DFF8C01300F054F843D400F044F840D0A6
:1051D00000F08DF801003BD100F050F800F079F8B4
:1051E00029684A6822F01C024A602969082929684E
:1051F0004A680CBF42F0080242F004024A60296B80
:1052000021B929684A6842F010024A602968B1420F
:1052100004D1002C1CBF052C092C09D1CA689301AC
:1052200001D500F03BF82A68DFF83413936866E094
:105230007A68B14242F480127A600CBFDFF88426AB
:1052400001F10C021268930104D500F027F8F2BDB9
:1052500052E00220F2BD05F150073978012970476C
:105260000546DFF808132868DFF8046388427047B2
:105270000C688068400704F01F0470477A68DFF804
:1052800008170A4042F480727A602968B14200D15E
:105290001CB97A6822F480127A6070477C6824F422
:1052A000005444F480547C602A694B68082A07D172
:1052B00023F020034B6029684A6842F0400206E070
:1052C00023F040034B6029684A6842F020024A609C
:1052D00070477B68DA0403D5BA6822F0060200E062
:1052E0000022BA601C230B60002139707047012036
:1052F0003870284600F0FEBA00213970F2BD0B402C
:1053000043F004039360F2BD0068006C70472DE920
:10531000F84F0546DFF89C172868DFF854A2DFF83D
:105320006082DFF8609288420668476816BF504581
:10533000404648460468B00704F01F040ED5B9077C
:105340000CD5686DC20603D4696D41F400616965CE
:10535000284601F0E4F82968022008607207DFF8A7
:1053600064B501D5780703D431073CD538073AD561
:10537000696DCA0603D4686D40F4007068652868DA
:10538000FFF706FE48B32868504504D1002C1CBF27
:10539000052C092C01D1C16805E050450CBF5946C8
:1053A00000F10C010968890417D40268130714D5A9
:1053B000816849070FD4426822F00C024260686D90
:1053C00020F480706865696DC80406D46A6D42F087
:1053D00001026A6501E000F0DDF82846FFF76CF98C
:1053E00029680C200860B20601D5B80603D47106FE
:1053F00049D5780647D5696DCA0603D4686D40F46F
:10540000005068652868C16C01F4C0714A1E924161
:10541000D20F0092FFF7BCFD2A68524504D1002C40
:105420001CBF062C072C01D1D36805E0524518BFDC
:1054300002F10C0BDBF80030009921B999011CD462
:10544000D8B1980419D41068410616D5980214D41E
:10545000906801070FD4506820F060005060696DBB
:1054600021F480516965686DC10506D46A6D42F00A
:1054700001026A6501E000F08DF8284600F070FC3A
:1054800029686020086032060BD5380609D5696D99
:10549000284641F48031696501F042F8296880208E
:1054A0000860F2050CD5F8050AD5696D284641F467
:1054B0000031696501F035F829684FF480700860A3
:1054C000B2050CD5B8050AD5696D284641F480218E
:1054D000696501F027F829684FF400700860F2064A
:1054E00023D5F90621D5286B88B128685CB1DFF88F
:1054F000C41588421CBF5045C846D8F8000010F4B7
:10550000404F04D10EE0C06810F0030F0AD0696D5F
:1055100041F480616965A86D40F00200A8652846E5
:1055200001F001F8286810210160720512D5780594
:1055300010D5696D41F480416965A86D4FF48061B3
:1055400040F00800A8652A6828461160BDE8F24FBF
:1055500000F0EABFBDE8F18F00000000C0FFFF5F70
:10556000C0FFFF7F0C000020400D03000020024020
:105570000021024008200240082102400860025831
:10558000082302400863025803C0F0FFFCBFFFFF7E
:105590001EF800FC686D40F010006865A96D41F0D0
:1055A0000101A96570472DE9FC4105464FF000084F
:1055B000CDF8008005F150063278012A08BF02209C
:1055C00000F068810120307028688268520700F17D
:1055D00058810F464FF01F0E3968C2690B030EBF8A
:1055E000C1F3846191FAA1F1B1FA81F1012401F0D2
:1055F0001F0104FA01F11143C16179682A68386812
:105600008B0903F00C0301F01F010EFA01FE30328A
:105610009A181368C0F3846000FA01F123EA0E03BC
:1056200019431160286882688168520779D40B0792
:1056300077D4BA683968FFF7B2FC78692968DFF86F
:1056400078241368CA6803F07043B3F1805F05D112
:105650009208530003F00E0398400DE0D30605D4E2
:10566000CA6893085A0002F00E0204E0CB689B0857
:105670005A0002F0080290403A693B68042A2BD095
:10568000603103F0F84301EB820118430A6802F02D
:10569000004210430860787E29683A6901280CBFEF
:1056A0004FF000400020603101EB82010B6823F0D5
:1056B000004318430860387E2A6839690128136955
:1056C00001F01F010CBF4FF40060002023F4F043F1
:1056D00088401843106124E0086E00F0F840B0EBF9
:1056E000836F03D10A6E22F000420A662868416E79
:1056F00000F0D2F803D1416E21F0004141662868E4
:10570000816E00F0C9F803D1816E21F000418166FD
:105710002868C16E00F0C0F803D1C16E21F00041CD
:10572000C16629688868C0076CD4FA683B68D1F8FC
:10573000C0C0DFF888E302F018022EFA02F2C3F3C9
:10574000130013402CEA00000343C1F8C030F8688E
:10575000DFF86C13884235D1386802030EBFC0F3FE
:10576000846190FAA0F1B1FA81F1491C01F01F01A6
:105770000A2910D200F0A8F8920601F01F01401C7F
:1057800002F0F8428C4000F01F00144300EB400090
:1057900044EA005112E000F097F8401C920601F034
:1057A0001F0100F01F0002F0F8428C400A38144339
:1057B00000EB400044EA005444F00071BA682868E5
:1057C000FFF7EDFB3968002961D52A68DFF8E4723C
:1057D000DFF8F002DFF8F032BA4216BF8242DFF89B
:1057E000EC421C46BA42246818BF824204F0E074BE
:1057F00000F058F840D1DFF8D872DFF8D802B9428B
:105800001BD1210243D4824241D11868DFF8C8225B
:1058100020F0E070044344F400041C601168DFF8D9
:10582000BC32B1FBF3F35B000093009800281EBF6D
:105830000099491E0091F8D129E0DFF8A472B9421D
:105840000AD1E10123D4824221D1186820F0E0700E
:10585000044344F080740DE0DFF88872B94216D139
:10586000610214D4824212D1186820F0E07004431F
:1058700044F480041C600AE0716841F0200171600A
:1058800003E0706840F0200070604FF001080021D4
:1058900040463170BDE8F6813A6801F0F841B1EB5D
:1058A000826F704707D1DFF84002DFF8407200686E
:1058B0003F68384302E0DFF83802006810F001006A
:1058C000704700000C200240010304D1C0F3846142
:1058D0000A4608460BE090FAA0F1B1FA81F290FA7C
:1058E000A0F190FAA0F0B1FA81F1B0FA80F0521C68
:1058F000491C704770B5044621688868C2073DD4CA
:1059000088686FF39E1040B1616D41F010016165D0
:10591000A06D40F00100A06527E08868754D284023
:1059200040F001008860FCF729FA06462068614AC9
:10593000664990421BD1086820680168CA071DD4D7
:105940008168C90704D482682A4042F0010282605B
:10595000FCF714FA801B0328EED3606D40F01000B2
:105960006065A16D41F00101A165012070BD554A3E
:10597000904205D1086810F01F0FDDD0002070BDE7
:1059800051480168D8E70000FEF1FFFF38B5044632
:105990004849206888421CBF4A4A904230D14B4B4C
:1059A0001D6815F4403F30D14FF40020FDF700FF93
:1059B00005466068B0F5802F18BFB0F5002F1CD0E9
:1059C000B0F5402F18BFB0F5801F16D0B0F5A01F5E
:1059D00018BFB0F5C01F10D0B0F5E01F28D0B0F54B
:1059E000001F27D0B0F5101F26D0B0F5201F25D0FE
:1059F000B0F5301F08BF2D0A21E0800C400014E0F4
:105A00003148016811F4403FCED0FEF7CCFB05468B
:105A10006068B0F5803F18BFB0F5003F04D0B0F526
:105A2000403F08BFAD080AE0000CB5FBF0F506E00A
:105A30002D0904E06D0902E0AD0900E0ED09FFF772
:105A400098FA41F2040188420DD22B4A206895420F
:105A500004D3816841F48071816031BD826822F491
:105A60008072826031BD6D0824488542216803D26E
:105A70008A6822F4407209E02148224B401998427A
:105A800006D28A6822F4407242F480728A6031BD84
:105A90001D481E4A4519954206D28B6823F440736F
:105AA00043F400738B6031BD886840F440708860B7
:105AB00031BD0000002002400010005CFFFF0F001D
:105AC0000000FF47002102400863025808230240FB
:105AD000000084CB006002580C000020400D030041
